S01500004D495F736973417578323031362E73726563D4
S11300000C9450000C946D000C946D000C946D00D5
S11300100C946D000C946D000C946D000C946D00A8
S11300200C946D000C946D000C946D000C946D0098
S11300300C946D000C946D000C946D000C946D0088
S11300400C946D000C946D000C946D000C946D0078
S11300500C946D000C946D000C946D000C946D0068
S11300600C946D000C946D00000000000020000052
S1130070000000000000000000000000000000007C
S1130080000000000000000004B6E704B6D304B684
S1130090C704B6C302900703AC8103AC800290008E
S11300A011241FBECFEFD8E0DEBFCDBF11E0A0E02A
S11300B0B1E0E2E1F6E002C005900D92A030B10794
S11300C0D9F721E0A0E0B1E001C01D92A130B20750
S11300D0E1F70E946F020C9407030C940000C4988B
S11300E00E946A028FEF0E946A02C49A0895FF92E6
S11300F00F931F93182F062FF42EC49885E00E94A7
S11301006A02812F0E946A02802F0E946A028F2D48
S11301100E946A02C49A1F910F91FF9008951F9341
S1130120182FC49883E00E946A02812F0E946A02F9
S11301308FEF0E946A02C49A1F9108950F931F9330
S1130140182F062FC49882E00E946A02812F0E9411
S11301506A02802F0E946A02C49A1F910F91089527
S11301600F931F93CF93DF93182F883008F055C057
S1130170C49ABC9AC798C598C698BF9ABD9ABE98A7
S11301800E946502C49880EC0E946A0280EA9FE0A3
S11301900197F1F7C49A80E49CE90197F1F7C498B8
S11301A082E00E946A0288E20E946A02E3E01E9FE3
S11301B0E0011124FE01E857FF4FE4918E2F0E94C5
S11301C06A02FE01E757FF4F0491802F0E946A02E2
S11301D0C657DF4FFE0184910E946A0283E00E94A9
S11301E06A02C49A8DE060E00E949E00BA98C29AA6
S11301F08CE060E00E949E0089E20E948F00182F2C
S11302008FE060E00E949E00101739F48EE00E9497
S11302108F00807ED9F781E001C080E0DF91CF912B
S11302201F910F91089586B3869586958095817068
S1130230089580EA0E946F0090E08475843509F087
S113024091E0892F0895AF92BF92DF92EF92FF92CF
S11302500F931F93CF93DF937C0180EB0E946F0079
S1130260D82EC82FD0E020E4A22EB12CAC22BD227F
S113027086FF02C080E903C087FF11C084E9C498E7
S11302800E946A02C7010E942C0280FF0DC0C49A1A
S1130290AB2839F08CE261E040E00E94770080E016
S11302A02FC08CE262E0F8CF8FEF0E946A0293E0E5
S11302B0D695C7959A95E1F7AE014170F701928101
S11302C09E7F942B9283082F0F70038310E008C045
S11302D08FEF0E946A02F701E10FF11D84831F5F13
S11302E01017B0F3C49AAB2819F08CE261E002C095
S11302F08CE262E040E00E9477008D2D87708F5F72
S1130300DF91CF911F910F91FF90EF90DF90BF90FD
S1130310AF900895FF920F931F93CF93DF93EC0157
S113032080EA0E946F0082FD02C0FF240BC084FD9E
S113033003C092E0F92E06C086FF02C0FF2430C03D
S113034084E0F82EC4988F2D80640E946A02CE0146
S11303500E9413020B810F708A8180FF05C0802FD9
S113036080640E946A020EC0802F0E946A0210E01C
S113037007C0FE01E10FF11D84810E946A021F5F24
S11303801017B8F3C49A85E08A95F1F7C498FF2052
S113039011F4FF24F3948F2D80680E946A02C49A9A
S11303A08F2DDF91CF911F910F91FF9008950F939F
S11303B01F93CF93DF93EC018FE060EE40E80E943F
S11303C077008EE00E948F00807E8038D1F780E62F
S11303D064E00E949E0080E760E00E949E0000E0CE
S11303E0C49882E00E946A02802F0E946A0210E090
S11303F0003211F4183048F4FE012196E4918E2F56
S11304000E946A021F5F1C3099F7C49A005F003390
S113041039F78FE060EE40E00E947700DF91CF91E2
S11304201F910F910895FC018081918123E096959D
S113043087952A95E1F78FB98081779BFECF9FB18D
S11304408295880F807E0E946A0280E00E946A0280
S113045080E00E946A0208951F93CF93DF93EC011A
S11304608FEF0E946A02182F8FEF0E946A02282FD2
S1130470382F83FF08C08FEF0E946A028FEF0E941B
S11304806A0281E01EC08FEF8FB9812F90E043E0B4
S1130490880F991F4A95E1F799838883779BFECF4C
S11304A08FB18FEF8FB92295269527708881822B83
S11304B08883779BFECF8FB134FD02C080E001C0FA
S11304C082E0DF91CF911F91089581E58DB981E09C
S11304D08EB908958FB9779BFECF8FB10895CF93CE
S11304E0DF93CDB7DEB768970FB6F894DEBF0FBEC3
S11304F0CDBF2FEF81EE94E0215080409040E1F792
S113050000C000008AB11AB88BB18BB910920001F7
S113051084E00E94B00088E690E00E94D70183E264
S113052091E09A83898385E08C8311E04B9B0AC018
S113053080910001817081279091000180FB90F9E6
S1130540909300014C9B0BC08091000186958170B3
S113055081279091000180FB91F9909300014D9BBC
S11305600CC08091000182FB882780F9812790913B
S1130570000180FB92F9909300014E9B0CC0809186
S1130580000183FB882780F981279091000180FB7B
S113059093F9909300014F9B0BC0809100018295C9
S11305A0817081279091000180FB94F99093000160
S11305B08091000181708D83809100018695817006
S11305C08E838091000182FB882780F98F8380913C
S11305D0000183FB882780F9888780910001829538
S11305E081708987CE0101960E948A010E941301BD
S11305F0882309F49BCFCE010D960E942301882302
S113060009F494CFCE010D960E948A018FCFF894FD
S1050610FFCF16
S9030000FC
