S01500004D415F736973417578323031362E73726563DC
S11300000C9442000C945F000C945F000C945F000D
S11300100C945F000C945F000C945F000C945F00E0
S11300200C945F000C945F000C945F000C945F00D0
S11300300C945F000C945F000C945F000C945F00C0
S11300400C945F000C945F000C945F000C945F00B0
S11300500C945F000C945F000C945F000C945F00A0
S11300600C945F000C945F000000000004B6E704E9
S1130070B6D304B6C704B6C302900703AC8103AC7D
S11300808002900011241FBECFEFD8E0DEBFCDBFA9
S113009011E0A0E0B1E0E8EAF5E002C005900D92BD
S11300A0A030B107D9F721E0A0E0B1E001C01D9272
S11300B0A030B207E1F70E9461000C94D2020C94C4
S11300C00000CF93DF93CDB7DEB768970FB6F894EF
S11300D0DEBF0FBECDBF81E08AB984E00E94E1009B
S11300E088E690E00E94690285E08C838EED8D8322
S11300F08DEA8E838EEB8F838FEE888789871A82B1
S113010019828B818E7F8B8310E4CE0101960E942D
S113011011020E945A01882321F0CE010D960E94FB
S11301205E018BB181278BB98BB18BB92FEF83ED36
S113013090E3215080409040E1F700C00000E5CFFB
S1130140CF93DF93D82FC62F2A9882E00E94CC0247
S11301508D2F0E94CC028C2F0E94CC022A9ADF9110
S1130160CF910895CF93C82F2A9883E00E94CC02A0
S11301708C2F0E94CC028FEF0E94CC022A9ACF913E
S113018008951F93CF93DF93182FD62FC42F2A9847
S113019085E00E94CC02812F0E94CC028D2F0E9408
S11301A0CC028C2F0E94CC022A9ADF91CF911F910E
S11301B008952A980E94CC028FEF0E94CC022A9ABA
S11301C00895CF92DF92EF92FF920F931F93CF93F4
S11301D0DF93883008F062C0C82F2A9A229A2D989B
S11301E02B982C98259A239A24980E94C7022A981F
S11301F080EC0E94CC0289EF90E00197F1F700C0F7
S113020000002A9A83EC99E00197F1F700C00000FE
S11302102A9882E00E94CC0288E20E94CC028C2FB1
S113022090E06C01CC0CDD1CC80ED91E00E010E07F
S1130230EC017E01F801EC0DFD1DE459FF4F8491A2
S11302400E94CC020F5F1F4F0330110591F783E02A
S11302500E94CC022A9A60E08DE00E94A0003898A7
S1130260409A60E08CE00E94A00089E20E94B20003
S1130270C82FF701EE0FFF1FEE0DFF1DE359FF4FCF
S1130280E49060E08FE00E94A000CE1109C08EE0EF
S11302900E94B200807ED9F781E003C080E001C0F3
S11302A080E0DF91CF911F910F91FF90EF90DF904D
S11302B0CF90089586B1809581700895CF92DF9292
S11302C0EF92FF920F931F93CF93DF936C0180EB18
S11302D00E94D900C82FD82FD07486FD53C088231C
S11302E00CF05AC03DC08FEF0E94CC02C3FB99278B
S11302F090F9F601228190FB20F922838F70838389
S11303008823A9F086010C5F1F4F9FEF980FE92EF9
S1130310F12CF5E0EF0EF11CEC0CFD1C8FEF0E94AC
S1130320CC02F80181938F01EE15FF05B9F72A9AE3
S1130330DD2331F040E061E08CE20E94C10005C0A1
S113034040E062E08CE20E94C100C770D1E0DC0FA3
S113035023C02A9A40E062E08CE20E94C1001CC0E3
S11303602A9884E90E94CC02C6010E94D60180FD2D
S1130370F0CFB9CF2A9A40E061E08CE20E94C1003C
S1130380D0E00AC02A9880E90E94CC02C6010E94EB
S1130390D60180FDEFCFA7CF8D2FDF91CF911F9195
S11303A00F91FF90EF90DF90CF9008951F93CF931C
S11303B0DF93EC018FEF0E94CC02182F8FEF0E9485
S11303C0CC02482F83FF08C08FEF0E94CC028FEF2E
S11303D00E94CC0281E021C08FEF8EBD212F30E03E
S11303E0220F331F220F331F220F331F3983288319
S11303F00DB407FEFDCF8EB58FEF8EBD8881942F8F
S1130400929596959770982B98830DB407FEFDCF1F
S11304108EB5842F807144FD82E0DF91CF911F91CE
S11304200895DF92EF92FF920F931F93CF93DF9380
S11304307C0180EA0E94D90082FF08C084FF08C0C2
S113044086FD3EC06894DD24D2F805C0D12C03C0DB
S11304506894DD24D1F82A988D2D80640E94CC0202
S1130460C7010E94AC02F70113811F70828180FFD3
S113047005C0812F80640E94CC0214C0812F0E9489
S1130480CC02112379F0E70124961150012F10E0DA
S11304900B5F1F4F0E0D1F1D89910E94CC02C017C8
S11304A0D107D1F72A9A00002A98D11002C0DD247E
S11304B0D3948D2D80680E94CC022A9A8D2D01C080
S11304C080E0DF91CF911F910F91FF90EF90DF902B
S11304D00895FF920F931F93CF93DF938C0140E80D
S11304E060EE8FE00E94C1008EE00E94B200807E28
S11304F08038D1F764E080E60E94A00060E080E7E5
S11305000E94A000D0E0F12C2A9882E00E94CC0244
S11305108D2F0E94CC02CF2DD03211F4C830A0F41C
S11305200F5F1F4FF801319784910E94CC02CF5F77
S1130530CC3091F72A9AD05FD03331F740E060EEA7
S11305408FE00E94C10002C02A9AF8CFDF91CF91B8
S11305501F910F91FF900895FC0120813181369500
S1130560279536952795369527952EBD80818295BA
S1130570880F807E0DB407FEFDCF9EB50E94CC028D
S113058080E00E94CC0280E00E94CC02089581E5C4
S11305908CBD81E08DBD08958EBD0DB407FEFDCFE9
S10B05A08EB50895F894FFCF15
S9030000FC
