S01500004D415F736973417578323031362E73726563DC
S11300000C9442000C945F000C945F000C945F000D
S11300100C945F000C945F000C945F000C945F00E0
S11300200C945F000C945F000C945F000C945F00D0
S11300300C945F000C945F000C945F000C945F00C0
S11300400C945F000C945F000C945F000C945F00B0
S11300500C945F000C945F000C945F000C945F00A0
S11300600C945F000C945F000000000004B6E704E9
S1130070B6D304B6C704B6C302900703AC8103AC7D
S11300808002900011241FBECFEFD8E0DEBFCDBFA9
S113009011E0A0E0B1E0ECEFF5E002C005900D92B4
S11300A0A030B107D9F721E0A0E0B1E001C01D9272
S11300B0A430B207E1F70E9461000C94FC020C9496
S11300C00000CF93DF93CDB7DEB768970FB6F894EF
S11300D0DEBF0FBECDBF569A209A84E00E94EB008B
S11300E082E00E94730288E690E00E94930285E019
S11300F08C838EED8D838DEA8E838EEB8F838FEED2
S1130100888789871A8219828B818E7F8B8300E08E
S113011011E0CE0101960E941B020E946401882313
S113012021F0CE010D960E9468018989F80180832F
S11301308A8981838081882311F05E9A02C08BB101
S11301401BB8F8018181882311F0589AE2CF8BB152
S11301501BB8DFCFCF93DF93D82FC62F2A9882E026
S11301600E94F6028D2F0E94F6028C2F0E94F60246
S11301702A9ADF91CF910895CF93C82F2A9883E0CC
S11301800E94F6028C2F0E94F6028FEF0E94F60264
S11301902A9ACF9108951F93CF93DF93182FD62FC8
S11301A0C42F2A9885E00E94F602812F0E94F6024D
S11301B08D2F0E94F6028C2F0E94F6022A9ADF915C
S11301C0CF911F9108952A980E94F6028FEF0E9402
S11301D0F6022A9A0895CF92DF92EF92FF920F933C
S11301E01F93CF93DF93883008F062C0C82F2A9AF8
S11301F0229A2D982B982C98259A239A24980E9419
S1130200F1022A9880EC0E94F60289EF90E00197AF
S1130210F1F700C000002A9A83EC99E00197F1F706
S113022000C000002A9882E00E94F60288E20E9440
S1130230F6028C2F90E06C01CC0CDD1CC80ED91E8C
S113024000E010E0EC017E01F801EC0DFD1DE45925
S1130250FF4F84910E94F6020F5F1F4F0330110578
S113026091F783E00E94F6022A9A60E08DE00E94F2
S1130270AA003898409A60E08CE00E94AA0089E2C3
S11302800E94BC00C82FF701EE0FFF1FEE0DFF1DEB
S1130290E359FF4FE49060E08FE00E94AA00CE1182
S11302A009C08EE00E94BC00807ED9F781E003C0C3
S11302B080E001C080E0DF91CF911F910F91FF900A
S11302C0EF90DF90CF90089586B180958170089566
S11302D0CF92DF92EF92FF920F931F93CF93DF930E
S11302E06C0180EB0E94E300C82FD82FD07486FDE8
S11302F053C088230CF05AC03DC08FEF0E94F60211
S1130300C3FB992790F9F601228190FB20F92283FF
S11303108F7083838823A9F086010C5F1F4F9FEFA2
S1130320980FE92EF12CF5E0EF0EF11CEC0CFD1CFE
S11303308FEF0E94F602F80181938F01EE15FF05FD
S1130340B9F72A9ADD2331F040E061E08CE20E94A3
S1130350CB0005C040E062E08CE20E94CB00C77095
S1130360D1E0DC0F23C02A9A40E062E08CE20E94D4
S1130370CB001CC02A9884E90E94F602C6010E94A0
S1130380E00180FDF0CFB9CF2A9A40E061E08CE231
S11303900E94CB00D0E00AC02A9880E90E94F602AD
S11303A0C6010E94E00180FDEFCFA7CF8D2FDF9122
S11303B0CF911F910F91FF90EF90DF90CF90089510
S11303C01F93CF93DF93EC018FEF0E94F602182F57
S11303D08FEF0E94F602482F83FF08C08FEF0E9420
S11303E0F6028FEF0E94F60281E021C08FEF8EBDEE
S11303F0212F30E0220F331F220F331F220F331F10
S1130400398328830DB407FEFDCF8EB58FEF8EBDE3
S11304108881942F929596959770982B98830DB414
S113042007FEFDCF8EB5842F807144FD82E0DF91FD
S1130430CF911F910895DF92EF92FF920F931F9334
S1130440CF93DF937C0180EA0E94E30082FF08C01F
S113045084FF08C086FD3EC06894DD24D2F805C040
S1130460D12C03C06894DD24D1F82A988D2D8064A2
S11304700E94F602C7010E94D602F70113811F7081
S1130480828180FF05C0812F80640E94F60214C01F
S1130490812F0E94F602112379F0E701249611506E
S11304A0012F10E00B5F1F4F0E0D1F1D89910E943D
S11304B0F602C017D107D1F72A9A00002A98D11062
S11304C002C0DD24D3948D2D80680E94F6022A9AFE
S11304D08D2D01C080E0DF91CF911F910F91FF908E
S11304E0EF90DF900895CF93DF93882331F081302C
S11304F031F0833031F4C0E205C0C0E603C0C0E48B
S113050001C0C0E04C2F60EE8FE00E94CB00D0E031
S11305108EE00E94BC00807E90E08C179D07C1F79E
S1130520DF91CF910895FF920F931F93CF93DF93A1
S11305308C0140E860EE8FE00E94CB008EE00E94C8
S1130540BC00807E8038D1F764E080E60E94AA0077
S113055060E080E70E94AA00D0E0F12C2A9882E0B3
S11305600E94F6028D2F0E94F602CF2DD03211F494
S1130570C830A0F40F5F1F4FF801319784910E9497
S1130580F602CF5FCC3091F72A9AD05FD03331F79F
S113059040E060EE8FE00E94CB0002C02A9AF8CFC0
S11305A0DF91CF911F910F91FF900895FC0120815D
S11305B031813695279536952795369527952EBD05
S11305C080818295880F807E0DB407FEFDCF9EB595
S11305D00E94F60280E00E94F60280E00E94F60289
S11305E0089581E58CBD81E08DBD08958EBD0DB467
S10F05F007FEFDCF8EB50895F894FFCFF0
S9030000FC
