S01700004763634170706C69636174696F6E312E737265635B
S11300000C9446000C9463000C9463000C946300FD
S11300100C9463000C9463000C9463000C946300D0
S11300200C9463000C9463000C9463000C946300C0
S11300300C9463000C9463000C9463000C946300B0
S11300400C9463000C9463000C9463000C946300A0
S11300500C9463000C9463000C9463000C94630090
S11300600C9463000C946300000000000000000086
S11300700000000004B6E704B6D304B6C704B6C350
S113008002900703AC8103AC8002900011241FBED0
S1130090CFEFD8E0DEBFCDBF11E0A0E0B1E0E2E9F0
S11300A0F5E002C005900D92A030B107D9F721E028
S11300B0A0E0B1E001C01D92A030B207E1F70E94B8
S11300C065000C94C7020C940000CF93DF93CDB766
S11300D0DEB768970FB6F894DEBF0FBECDBF84E0DD
S11300E00E94D60088E690E00E945E021A8219827D
S11300F084E08C838EED8D838DEA8E838EEB8F83EB
S11301008FEE8887CE0101960E9406020E944F015D
S11301108823E1F3CE010D960E9453018823B1F3A5
S1130120CE010D960E940602F1CFCF93DF93D82F14
S1130130C62F2A9882E00E94C1028D2F0E94C1021C
S11301408C2F0E94C1022A9ADF91CF910895CF93F8
S1130150C82F2A9883E00E94C1028C2F0E94C102FA
S11301608FEF0E94C1022A9ACF9108951F93CF93D3
S1130170DF93182FD62FC42F2A9885E00E94C1023E
S1130180812F0E94C1028D2F0E94C1028C2F0E94D8
S1130190C1022A9ADF91CF911F9108952A980E9453
S11301A0C1028FEF0E94C1022A9A0895CF92DF9272
S11301B0EF92FF920F931F93CF93DF93883008F051
S11301C062C0C82F2A9A229A2D982B982C98259A87
S11301D0239A24980E94BC022A9880EC0E94C102AF
S11301E089EF90E00197F1F700C000002A9A83ECB0
S11301F099E00197F1F700C000002A9882E00E947C
S1130200C10288E20E94C1028C2F90E06C01CC0CE8
S1130210DD1CC80ED91E00E010E0EC017E01F801DF
S1130220EC0DFD1DEC58FF4F84910E94C1020F5F3D
S11302301F4F0330110591F783E00E94C1022A9AEF
S113024060E08DE00E9495003898409A60E08CE070
S11302500E94950089E20E94A700C82FF701EE0FC3
S1130260FF1FEE0DFF1DEB58FF4FE49060E08FE0A1
S11302700E949500CE1109C08EE00E94A700807EE6
S1130280D9F781E003C080E001C080E0DF91CF9125
S11302901F910F91FF90EF90DF90CF90089586B15A
S11302A0809581700895CF92DF92EF92FF920F9321
S11302B01F93CF93DF936C0180EB0E94CE00C82F75
S11302C0D82FD07486FD53C088230CF05AC03DC08B
S11302D08FEF0E94C102C3FB992790F9F601228196
S11302E090FB20F922838F7083838823A9F08601F1
S11302F00C5F1F4F9FEF980FE92EF12CF5E0EF0EE6
S1130300F11CEC0CFD1C8FEF0E94C102F8018193DB
S11303108F01EE15FF05B9F72A9ADD2331F040E08D
S113032061E08CE20E94B60005C040E062E08CE22D
S11303300E94B600C770D1E0DC0F23C02A9A40E0C7
S113034062E08CE20E94B6001CC02A9884E90E94F4
S1130350C102C6010E94CB0180FDF0CFB9CF2A9A19
S113036040E061E08CE20E94B600D0E00AC02A9826
S113037080E90E94C102C6010E94CB0180FDEFCF3B
S1130380A7CF8D2FDF91CF911F910F91FF90EF9009
S1130390DF90CF9008951F93CF93DF93EC018FEFFD
S11303A00E94C102182F8FEF0E94C102482F83FFC1
S11303B008C08FEF0E94C1028FEF0E94C10281E04A
S11303C021C08FEF8EBD212F30E0220F331F220F6B
S11303D0331F220F331F398328830DB407FEFDCF4B
S11303E08EB58FEF8EBD8881942F929596959770D8
S11303F0982B98830DB407FEFDCF8EB5842F8071A2
S113040044FD82E0DF91CF911F910895DF92EF9236
S1130410FF920F931F93CF93DF937C0180EA0E9496
S1130420CE0082FF08C084FF08C086FD3EC06894E9
S1130430DD24D2F805C0D12C03C06894DD24D1F8A2
S11304402A988D2D80640E94C102C7010E94A102D6
S1130450F70113811F70828180FF05C0812F8064A2
S11304600E94C10214C0812F0E94C102112379F09D
S1130470E70124961150012F10E00B5F1F4F0E0D62
S11304801F1D89910E94C102C017D107D1F72A9A72
S113049000002A98D11002C0DD24D3948D2D8068E9
S11304A00E94C1022A9A8D2D01C080E0DF91CF9174
S11304B01F910F91FF90EF90DF900895FF920F939B
S11304C01F93CF93DF938C0140E860EE8FE00E948E
S11304D0B6008EE00E94A700807E8038D1F764E0E9
S11304E080E60E94950060E080E70E949500D0E0DD
S11304F0F12C2A9882E00E94C1028D2F0E94C10231
S1130500CF2DD03211F4C830A0F40F5F1F4FF80183
S1130510319784910E94C102CF5FCC3091F72A9A1F
S1130520D05FD03331F740E060EE8FE00E94B60038
S113053002C02A9AF8CFDF91CF911F910F91FF90BB
S11305400895FC01208131813695279536952795AC
S1130550369527952EBD80818295880F807E0DB4B7
S113056007FEFDCF9EB50E94C10280E00E94C10239
S113057080E00E94C102089581E58CBD81E08DBDBB
S113058008958EBD0DB407FEFDCF8EB50895F89481
S1050590FFCF97
S9030000FC
