S01500004D495F736973417578323031362E73726563D4
S11300000C9450000C946D000C946D000C946D00D5
S11300100C946D000C946D000C946D000C946D00A8
S11300200C946D000C946D000C946D000C946D0098
S11300300C946D000C946D000C946D000C946D0088
S11300400C946D000C946D000C946D000C946D0078
S11300500C946D000C946D000C946D000C946D0068
S11300600C946D000C946D00000000000000000072
S1130070000000000000000000000000000000007C
S1130080000000000000000004B6E704B6D304B684
S1130090C704B6C302900703AC8103AC800290008E
S11300A011241FBECFEFD8E0DEBFCDBF11E0A0E02A
S11300B0B1E0ECE6F8E002C005900D92A030B10783
S11300C0D9F721E0A0E0B1E001C01D92A030B20751
S11300D0E1F70E94C2030C9434040C940000C49809
S11300E00E948E028FEF0E948E02C49A0895FF929E
S11300F00F931F93182F062FF42EC49885E00E94A7
S11301008E02812F0E948E02802F0E948E028F2DDC
S11301100E948E02C49A1F910F91FF9008951F931D
S1130120182FC49883E00E948E02812F0E948E02B1
S11301308FEF0E948E02C49A1F9108950F931F930C
S1130140182F062FC49882E00E948E02812F0E94ED
S11301508E02802F0E948E02C49A1F910F910895DF
S11301600F931F93CF93DF93182F883008F055C057
S1130170C49ABC9AC798C598C698BF9ABD9ABE98A7
S11301800E948902C49880EC0E948E0280EA9FE05B
S11301900197F1F7C49A80E49CE90197F1F7C498B8
S11301A082E00E948E0288E20E948E02E3E01E9F9B
S11301B0E0011124FE01E857FF4FE4918E2F0E94C5
S11301C08E02FE01E757FF4F0491802F0E948E029A
S11301D0C657DF4FFE0184910E948E0283E00E9485
S11301E08E02C49A8DE060E00E949E00BA98C29A82
S11301F08CE060E00E949E0089E20E948F00182F2C
S11302008FE060E00E949E00101739F48EE00E9497
S11302108F00807ED9F781E001C080E0DF91CF912B
S11302201F910F91089586B3869586958095817068
S1130230089580EA0E946F0090E08475843509F087
S113024091E0892F0895AF92BF92DF92EF92FF92CF
S11302500F931F93CF93DF937C0180EB0E946F0079
S1130260D82EC82FD0E020E4A22EB12CAC22BD227F
S113027086FF02C080E903C087FF11C084E9C498E7
S11302800E948E02C7010E942C0280FF0DC0C49AF6
S1130290AB2839F08CE261E040E00E94770080E016
S11302A02FC08CE262E0F8CF8FEF0E948E0293E0C1
S11302B0D695C7959A95E1F7AE014170F701928101
S11302C09E7F942B9283082F0F70038310E008C045
S11302D08FEF0E948E02F701E10FF11D84831F5FEF
S11302E01017B0F3C49AAB2819F08CE261E002C095
S11302F08CE262E040E00E9477008D2D87708F5F72
S1130300DF91CF911F910F91FF90EF90DF90BF90FD
S1130310AF900895FF920F931F93CF93DF93EC0157
S113032080EA0E946F0082FD02C0FF240BC084FD9E
S113033003C092E0F92E06C086FF02C0FF2430C03D
S113034084E0F82EC4988F2D80640E948E02CE0122
S11303500E9413020B810F708A8180FF05C0802FD9
S113036080640E948E020EC0802F0E948E0210E0D4
S113037007C0FE01E10FF11D84810E948E021F5F00
S11303801017B8F3C49A85E08A95F1F7C498FF2052
S113039011F4FF24F3948F2D80680E948E02C49A76
S11303A08F2DDF91CF911F910F91FF9008950F939F
S11303B01F93CF93DF93EC018FE060EE40E80E943F
S11303C077008EE00E948F00807E8038D1F780E62F
S11303D064E00E949E0080E760E00E949E0000E0CE
S11303E0C49882E00E948E02802F0E948E0210E048
S11303F0003211F4183048F4FE012196E4918E2F56
S11304000E948E021F5F1C3099F7C49A005F00336C
S113041039F78FE060EE40E00E947700DF91CF91E2
S11304201F910F910895FC018081918123E096959D
S113043087952A95E1F78FB98081779BFECF9FB18D
S11304408295880F807E0E948E0280E00E948E0238
S113045080E00E948E0208951F93CF93DF93EC01F6
S11304608FEF0E948E02182F8FEF0E948E02282F8A
S1130470382F83FF08C08FEF0E948E028FEF0E94F7
S11304808E0281E01EC08FEF8FB9812F90E043E090
S1130490880F991F4A95E1F799838883779BFECF4C
S11304A08FB18FEF8FB92295269527708881822B83
S11304B08883779BFECF8FB134FD02C080E001C0FA
S11304C082E0DF91CF911F9108951F93CF93DF9323
S11304D0882311F410E609C0813011F410E405C03A
S11304E0833011F410E201C010E08FE060EE412F80
S11304F00E947700C12FD0E08EE00E948F0090E030
S1130500807E90708C179D07B9F7DF91CF911F9172
S1130510089581E58DB981E08EB908958FB9779BEF
S1130520FECF8FB108958F929F92AF92BF92CF92D8
S1130530DF92EF92FF920F934A015B01922F209179
S1130540C0002091C1002091C2002FEFE21621F0DB
S113055021E02E1508F47DC00F3F19F0033008F098
S11305607AC09F3F19F0953008F077C08F3F89F427
S11305708091C200829586958695837021F08330A0
S113058009F46FC005C08091C0008695817001C0D8
S113059080E09FEF89169906A906B90609F45FC0A1
S11305A08130B9F018F0843039F139C060E472E474
S11305B08FE090E0A50194010E94F403DA01C901DF
S11305C00197A109B1094C015D01C12CD12C76011F
S11305D02EC060E874E88EE190E0A50194010E94C9
S11305E0F403DA01C9010197A109B1094C015D01C4
S11305F0C12CD12C76011BC060E072E18AE790E047
S1130600A50194010E94F403DA01C9010197A1092B
S1130610B1094C015D01C12CD12C760108C0812C9B
S1130620912CA12CB12CC12CD12CE12CF12C282DF6
S1130630392D4A2D5B2D6C2D7D2D8E2D9F2D08E09F
S11306400E9418042F702093C5008092C40080E09B
S11306500FC087E00DC085E00BC085E009C080E0D5
S113066007C02FEF82169206A206B20629F680E092
S11306700F91FF90EF90DF90CF90BF90AF909F903D
S11306808F900895E1ECF0E080818860808380E0C1
S113069008958091C00085FB882780F90895CF9341
S11306A0C82F0E9449038823E1F3C093C60080E069
S11306B0CF910895FC0189B183FB882780F9808359
S11306C089B182958170818389B185FB882780F9FE
S11306D0828389B186FB882780F9838389B1881F47
S11306E08827881F84830895CF93DF93CDB7DEB71F
S11306F02C970FB6F894DEBF0FBECDBFFC011A8253
S1130700198285E08C838B818E7F8B8310821D827E
S113071081818E8382818F83838188878481898785
S1130720CE0101960E948A012C960FB6F894DEBF82
S11307300FBECDBFDF91CF91089584E00E94B00039
S113074088E690E00E94D70182E00E946502089545
S11307508AB11AB88BB18BB90895EF920F930E94A6
S11307609D03E12C00E023E040E855E260E070E006
S113077080E00E9493020E9442030E94A8030F910A
S1130780EF900895CF93DF93CDB7DEB761970FB69F
S1130790F894DEBF0FBECDBF0E94AD03198200E006
S11307A00E9413018823B9F0CE0106960E9423010A
S11307B0882389F08985882371F0102FEAE0F0E01E
S11307C0EC0FFD1FE10FF11D80810E944F031F5F9D
S11307D08985181798F3CE0101960E945A03CE0119
S11307E001960E947403DCCFA1E21A2EAA1BBB1B44
S11307F0FD010DC0AA1FBB1FEE1FFF1FA217B307E9
S1130800E407F50720F0A21BB30BE40BF50B661FFE
S1130810771F881F991F1A9469F7609570958095C2
S113082090959B01AC01BD01CF01089597FB10F891
S1130830169400080F93083098F00850232F342F93
S1130840452F562F672F782F892F902DF4CF05949D
S113085097958795779567955795479537952795F4
S10F08600A95AAF70F910895F894FFCFB1
S9030000FC
